{
  "_format": "hh-sol-artifact-1",
  "contractName": "SendLockbox",
  "sourceName": "contracts/SendLockbox.sol",
  "abi": [
    {
      "inputs": [
        {
          "internalType": "address",
          "name": "sendv0",
          "type": "address"
        },
        {
          "internalType": "address",
          "name": "sendv1",
          "type": "address"
        }
      ],
      "stateMutability": "nonpayable",
      "type": "constructor"
    },
    {
      "inputs": [
        {
          "internalType": "address",
          "name": "token",
          "type": "address"
        }
      ],
      "name": "SafeERC20FailedOperation",
      "type": "error"
    },
    {
      "anonymous": false,
      "inputs": [
        {
          "indexed": true,
          "internalType": "address",
          "name": "to",
          "type": "address"
        },
        {
          "indexed": false,
          "internalType": "uint256",
          "name": "amount",
          "type": "uint256"
        }
      ],
      "name": "Deposit",
      "type": "event"
    },
    {
      "inputs": [],
      "name": "SEND_V0",
      "outputs": [
        {
          "internalType": "contract IERC20",
          "name": "",
          "type": "address"
        }
      ],
      "stateMutability": "view",
      "type": "function"
    },
    {
      "inputs": [],
      "name": "SEND_V1",
      "outputs": [
        {
          "internalType": "contract ISendToken",
          "name": "",
          "type": "address"
        }
      ],
      "stateMutability": "view",
      "type": "function"
    },
    {
      "inputs": [
        {
          "internalType": "uint256",
          "name": "amount",
          "type": "uint256"
        }
      ],
      "name": "deposit",
      "outputs": [],
      "stateMutability": "nonpayable",
      "type": "function"
    },
    {
      "inputs": [
        {
          "internalType": "address",
          "name": "to",
          "type": "address"
        },
        {
          "internalType": "uint256",
          "name": "amount",
          "type": "uint256"
        }
      ],
      "name": "depositTo",
      "outputs": [],
      "stateMutability": "nonpayable",
      "type": "function"
    }
  ],
  "bytecode": "0x60c060405234801561001057600080fd5b5060405161088938038061088983398181016040528101906100329190610104565b8173ffffffffffffffffffffffffffffffffffffffff1660808173ffffffffffffffffffffffffffffffffffffffff16815250508073ffffffffffffffffffffffffffffffffffffffff1660a08173ffffffffffffffffffffffffffffffffffffffff16815250505050610144565b600080fd5b600073ffffffffffffffffffffffffffffffffffffffff82169050919050565b60006100d1826100a6565b9050919050565b6100e1816100c6565b81146100ec57600080fd5b50565b6000815190506100fe816100d8565b92915050565b6000806040838503121561011b5761011a6100a1565b5b6000610129858286016100ef565b925050602061013a858286016100ef565b9150509250929050565b60805160a0516107146101756000396000818160eb01526101e901526000818160c7015261013001526107146000f3fe608060405234801561001057600080fd5b506004361061004c5760003560e01c80637040fb5e14610051578063ae640bcc1461006f578063b6b55f251461008d578063ffaad6a5146100a9575b600080fd5b6100596100c5565b604051610066919061041c565b60405180910390f35b6100776100e9565b6040516100849190610458565b60405180910390f35b6100a760048036038101906100a291906104ae565b61010d565b005b6100c360048036038101906100be9190610519565b61011a565b005b7f000000000000000000000000000000000000000000000000000000000000000081565b7f000000000000000000000000000000000000000000000000000000000000000081565b6101173382610128565b50565b6101248282610128565b5050565b6101753330837f000000000000000000000000000000000000000000000000000000000000000073ffffffffffffffffffffffffffffffffffffffff16610279909392919063ffffffff16565b8173ffffffffffffffffffffffffffffffffffffffff167fe1fffcc4923d04b559f4d29a8bfc6cda04eb5b0d3c460751c2402c5c5cc9109c826040516101bb9190610568565b60405180910390a260006064670de0b6b3a7640000836101db91906105b2565b6101e59190610623565b90507f000000000000000000000000000000000000000000000000000000000000000073ffffffffffffffffffffffffffffffffffffffff166340c10f1984836040518363ffffffff1660e01b8152600401610242929190610663565b600060405180830381600087803b15801561025c57600080fd5b505af1158015610270573d6000803e3d6000fd5b50505050505050565b6102f5848573ffffffffffffffffffffffffffffffffffffffff166323b872dd8686866040516024016102ae9392919061068c565b604051602081830303815290604052915060e01b6020820180517bffffffffffffffffffffffffffffffffffffffffffffffffffffffff83818316178352505050506102fb565b50505050565b600080602060008451602086016000885af18061031e576040513d6000823e3d81fd5b3d925060005191505060008214610339576001811415610355565b60008473ffffffffffffffffffffffffffffffffffffffff163b145b1561039757836040517f5274afe700000000000000000000000000000000000000000000000000000000815260040161038e91906106c3565b60405180910390fd5b50505050565b600073ffffffffffffffffffffffffffffffffffffffff82169050919050565b6000819050919050565b60006103e26103dd6103d88461039d565b6103bd565b61039d565b9050919050565b60006103f4826103c7565b9050919050565b6000610406826103e9565b9050919050565b610416816103fb565b82525050565b6000602082019050610431600083018461040d565b92915050565b6000610442826103e9565b9050919050565b61045281610437565b82525050565b600060208201905061046d6000830184610449565b92915050565b600080fd5b6000819050919050565b61048b81610478565b811461049657600080fd5b50565b6000813590506104a881610482565b92915050565b6000602082840312156104c4576104c3610473565b5b60006104d284828501610499565b91505092915050565b60006104e68261039d565b9050919050565b6104f6816104db565b811461050157600080fd5b50565b600081359050610513816104ed565b92915050565b600080604083850312156105305761052f610473565b5b600061053e85828601610504565b925050602061054f85828601610499565b9150509250929050565b61056281610478565b82525050565b600060208201905061057d6000830184610559565b92915050565b7f4e487b7100000000000000000000000000000000000000000000000000000000600052601160045260246000fd5b60006105bd82610478565b91506105c883610478565b92508282026105d681610478565b915082820484148315176105ed576105ec610583565b5b5092915050565b7f4e487b7100000000000000000000000000000000000000000000000000000000600052601260045260246000fd5b600061062e82610478565b915061063983610478565b925082610649576106486105f4565b5b828204905092915050565b61065d816104db565b82525050565b60006040820190506106786000830185610654565b6106856020830184610559565b9392505050565b60006060820190506106a16000830186610654565b6106ae6020830185610654565b6106bb6040830184610559565b949350505050565b60006020820190506106d86000830184610654565b9291505056fea26469706673582212205b1a09a3fa63d04b6405b3897a86c58a6846d27ccab339867ac9560ec022dae464736f6c634300081c0033",
  "linkReferences": {},
  "deployedLinkReferences": {}
}