{
  "_format": "hh-sol-artifact-1",
  "contractName": "SendToken",
  "sourceName": "contracts/SendToken.sol",
  "abi": [
    {
      "inputs": [
        {
          "internalType": "string",
          "name": "_name",
          "type": "string"
        },
        {
          "internalType": "string",
          "name": "_symbol",
          "type": "string"
        },
        {
          "internalType": "address",
          "name": "_lockbox",
          "type": "address"
        }
      ],
      "stateMutability": "nonpayable",
      "type": "constructor"
    },
    {
      "inputs": [
        {
          "internalType": "address",
          "name": "spender",
          "type": "address"
        },
        {
          "internalType": "uint256",
          "name": "allowance",
          "type": "uint256"
        },
        {
          "internalType": "uint256",
          "name": "needed",
          "type": "uint256"
        }
      ],
      "name": "ERC20InsufficientAllowance",
      "type": "error"
    },
    {
      "inputs": [
        {
          "internalType": "address",
          "name": "sender",
          "type": "address"
        },
        {
          "internalType": "uint256",
          "name": "balance",
          "type": "uint256"
        },
        {
          "internalType": "uint256",
          "name": "needed",
          "type": "uint256"
        }
      ],
      "name": "ERC20InsufficientBalance",
      "type": "error"
    },
    {
      "inputs": [
        {
          "internalType": "address",
          "name": "approver",
          "type": "address"
        }
      ],
      "name": "ERC20InvalidApprover",
      "type": "error"
    },
    {
      "inputs": [
        {
          "internalType": "address",
          "name": "receiver",
          "type": "address"
        }
      ],
      "name": "ERC20InvalidReceiver",
      "type": "error"
    },
    {
      "inputs": [
        {
          "internalType": "address",
          "name": "sender",
          "type": "address"
        }
      ],
      "name": "ERC20InvalidSender",
      "type": "error"
    },
    {
      "inputs": [
        {
          "internalType": "address",
          "name": "spender",
          "type": "address"
        }
      ],
      "name": "ERC20InvalidSpender",
      "type": "error"
    },
    {
      "anonymous": false,
      "inputs": [
        {
          "indexed": true,
          "internalType": "address",
          "name": "owner",
          "type": "address"
        },
        {
          "indexed": true,
          "internalType": "address",
          "name": "spender",
          "type": "address"
        },
        {
          "indexed": false,
          "internalType": "uint256",
          "name": "value",
          "type": "uint256"
        }
      ],
      "name": "Approval",
      "type": "event"
    },
    {
      "anonymous": false,
      "inputs": [
        {
          "indexed": true,
          "internalType": "address",
          "name": "from",
          "type": "address"
        },
        {
          "indexed": true,
          "internalType": "address",
          "name": "to",
          "type": "address"
        },
        {
          "indexed": false,
          "internalType": "uint256",
          "name": "value",
          "type": "uint256"
        }
      ],
      "name": "Transfer",
      "type": "event"
    },
    {
      "inputs": [
        {
          "internalType": "address",
          "name": "owner",
          "type": "address"
        },
        {
          "internalType": "address",
          "name": "spender",
          "type": "address"
        }
      ],
      "name": "allowance",
      "outputs": [
        {
          "internalType": "uint256",
          "name": "",
          "type": "uint256"
        }
      ],
      "stateMutability": "view",
      "type": "function"
    },
    {
      "inputs": [
        {
          "internalType": "address",
          "name": "spender",
          "type": "address"
        },
        {
          "internalType": "uint256",
          "name": "value",
          "type": "uint256"
        }
      ],
      "name": "approve",
      "outputs": [
        {
          "internalType": "bool",
          "name": "",
          "type": "bool"
        }
      ],
      "stateMutability": "nonpayable",
      "type": "function"
    },
    {
      "inputs": [
        {
          "internalType": "address",
          "name": "account",
          "type": "address"
        }
      ],
      "name": "balanceOf",
      "outputs": [
        {
          "internalType": "uint256",
          "name": "",
          "type": "uint256"
        }
      ],
      "stateMutability": "view",
      "type": "function"
    },
    {
      "inputs": [
        {
          "internalType": "uint256",
          "name": "value",
          "type": "uint256"
        }
      ],
      "name": "burn",
      "outputs": [],
      "stateMutability": "nonpayable",
      "type": "function"
    },
    {
      "inputs": [
        {
          "internalType": "address",
          "name": "account",
          "type": "address"
        },
        {
          "internalType": "uint256",
          "name": "value",
          "type": "uint256"
        }
      ],
      "name": "burnFrom",
      "outputs": [],
      "stateMutability": "nonpayable",
      "type": "function"
    },
    {
      "inputs": [],
      "name": "decimals",
      "outputs": [
        {
          "internalType": "uint8",
          "name": "",
          "type": "uint8"
        }
      ],
      "stateMutability": "view",
      "type": "function"
    },
    {
      "inputs": [],
      "name": "lockbox",
      "outputs": [
        {
          "internalType": "address",
          "name": "",
          "type": "address"
        }
      ],
      "stateMutability": "view",
      "type": "function"
    },
    {
      "inputs": [
        {
          "internalType": "address",
          "name": "to",
          "type": "address"
        },
        {
          "internalType": "uint256",
          "name": "amount",
          "type": "uint256"
        }
      ],
      "name": "mint",
      "outputs": [],
      "stateMutability": "nonpayable",
      "type": "function"
    },
    {
      "inputs": [],
      "name": "name",
      "outputs": [
        {
          "internalType": "string",
          "name": "",
          "type": "string"
        }
      ],
      "stateMutability": "view",
      "type": "function"
    },
    {
      "inputs": [],
      "name": "symbol",
      "outputs": [
        {
          "internalType": "string",
          "name": "",
          "type": "string"
        }
      ],
      "stateMutability": "view",
      "type": "function"
    },
    {
      "inputs": [],
      "name": "totalSupply",
      "outputs": [
        {
          "internalType": "uint256",
          "name": "",
          "type": "uint256"
        }
      ],
      "stateMutability": "view",
      "type": "function"
    },
    {
      "inputs": [
        {
          "internalType": "address",
          "name": "to",
          "type": "address"
        },
        {
          "internalType": "uint256",
          "name": "value",
          "type": "uint256"
        }
      ],
      "name": "transfer",
      "outputs": [
        {
          "internalType": "bool",
          "name": "",
          "type": "bool"
        }
      ],
      "stateMutability": "nonpayable",
      "type": "function"
    },
    {
      "inputs": [
        {
          "internalType": "address",
          "name": "from",
          "type": "address"
        },
        {
          "internalType": "address",
          "name": "to",
          "type": "address"
        },
        {
          "internalType": "uint256",
          "name": "value",
          "type": "uint256"
        }
      ],
      "name": "transferFrom",
      "outputs": [
        {
          "internalType": "bool",
          "name": "",
          "type": "bool"
        }
      ],
      "stateMutability": "nonpayable",
      "type": "function"
    }
  ],
  "bytecode": "0x60a060405234801561001057600080fd5b50604051611885380380611885833981810160405281019061003291906102d4565b828281600390816100439190610580565b5080600490816100539190610580565b505050600073ffffffffffffffffffffffffffffffffffffffff168173ffffffffffffffffffffffffffffffffffffffff16036100c5576040517f08c379a00000000000000000000000000000000000000000000000000000000081526004016100bc906106af565b60405180910390fd5b8073ffffffffffffffffffffffffffffffffffffffff1660808173ffffffffffffffffffffffffffffffffffffffff16815250505050506106cf565b6000604051905090565b600080fd5b600080fd5b600080fd5b600080fd5b6000601f19601f8301169050919050565b7f4e487b7100000000000000000000000000000000000000000000000000000000600052604160045260246000fd5b6101688261011f565b810181811067ffffffffffffffff8211171561018757610186610130565b5b80604052505050565b600061019a610101565b90506101a6828261015f565b919050565b600067ffffffffffffffff8211156101c6576101c5610130565b5b6101cf8261011f565b9050602081019050919050565b60005b838110156101fa5780820151818401526020810190506101df565b60008484015250505050565b6000610219610214846101ab565b610190565b9050828152602081018484840111156102355761023461011a565b5b6102408482856101dc565b509392505050565b600082601f83011261025d5761025c610115565b5b815161026d848260208601610206565b91505092915050565b600073ffffffffffffffffffffffffffffffffffffffff82169050919050565b60006102a182610276565b9050919050565b6102b181610296565b81146102bc57600080fd5b50565b6000815190506102ce816102a8565b92915050565b6000806000606084860312156102ed576102ec61010b565b5b600084015167ffffffffffffffff81111561030b5761030a610110565b5b61031786828701610248565b935050602084015167ffffffffffffffff81111561033857610337610110565b5b61034486828701610248565b9250506040610355868287016102bf565b9150509250925092565b600081519050919050565b7f4e487b7100000000000000000000000000000000000000000000000000000000600052602260045260246000fd5b600060028204905060018216806103b157607f821691505b6020821081036103c4576103c361036a565b5b50919050565b60008190508160005260206000209050919050565b60006020601f8301049050919050565b600082821b905092915050565b60006008830261042c7fffffffffffffffffffffffffffffffffffffffffffffffffffffffffffffffff826103ef565b61043686836103ef565b95508019841693508086168417925050509392505050565b6000819050919050565b6000819050919050565b600061047d6104786104738461044e565b610458565b61044e565b9050919050565b6000819050919050565b61049783610462565b6104ab6104a382610484565b8484546103fc565b825550505050565b600090565b6104c06104b3565b6104cb81848461048e565b505050565b5b818110156104ef576104e46000826104b8565b6001810190506104d1565b5050565b601f82111561053457610505816103ca565b61050e846103df565b8101602085101561051d578190505b610531610529856103df565b8301826104d0565b50505b505050565b600082821c905092915050565b600061055760001984600802610539565b1980831691505092915050565b60006105708383610546565b9150826002028217905092915050565b6105898261035f565b67ffffffffffffffff8111156105a2576105a1610130565b5b6105ac8254610399565b6105b78282856104f3565b600060209050601f8311600181146105ea57600084156105d8578287015190505b6105e28582610564565b86555061064a565b601f1984166105f8866103ca565b60005b82811015610620578489015182556001820191506020850194506020810190506105fb565b8683101561063d5784890151610639601f891682610546565b8355505b6001600288020188555050505b505050505050565b600082825260208201905092915050565b7f5a4c000000000000000000000000000000000000000000000000000000000000600082015250565b6000610699600283610652565b91506106a482610663565b602082019050919050565b600060208201905081810360008301526106c88161068c565b9050919050565b6080516111946106f1600039600081816103a7015261045701526111946000f3fe608060405234801561001057600080fd5b50600436106100cf5760003560e01c806342966c681161008c57806379cc67901161006657806379cc67901461021457806395d89b4114610230578063a9059cbb1461024e578063dd62ed3e1461027e576100cf565b806342966c68146101aa57806366cc5702146101c657806370a08231146101e4576100cf565b806306fdde03146100d4578063095ea7b3146100f257806318160ddd1461012257806323b872dd14610140578063313ce5671461017057806340c10f191461018e575b600080fd5b6100dc6102ae565b6040516100e99190610d4f565b60405180910390f35b61010c60048036038101906101079190610e0a565b610340565b6040516101199190610e65565b60405180910390f35b61012a610363565b6040516101379190610e8f565b60405180910390f35b61015a60048036038101906101559190610eaa565b61036d565b6040516101679190610e65565b60405180910390f35b61017861039c565b6040516101859190610f19565b60405180910390f35b6101a860048036038101906101a39190610e0a565b6103a5565b005b6101c460048036038101906101bf9190610f34565b610441565b005b6101ce610455565b6040516101db9190610f70565b60405180910390f35b6101fe60048036038101906101f99190610f8b565b610479565b60405161020b9190610e8f565b60405180910390f35b61022e60048036038101906102299190610e0a565b6104c1565b005b6102386104e1565b6040516102459190610d4f565b60405180910390f35b61026860048036038101906102639190610e0a565b610573565b6040516102759190610e65565b60405180910390f35b61029860048036038101906102939190610fb8565b610596565b6040516102a59190610e8f565b60405180910390f35b6060600380546102bd90611027565b80601f01602080910402602001604051908101604052809291908181526020018280546102e990611027565b80156103365780601f1061030b57610100808354040283529160200191610336565b820191906000526020600020905b81548152906001019060200180831161031957829003601f168201915b5050505050905090565b60008061034b61061d565b9050610358818585610625565b600191505092915050565b6000600254905090565b60008061037861061d565b9050610385858285610637565b6103908585856106cb565b60019150509392505050565b60006012905090565b7f000000000000000000000000000000000000000000000000000000000000000073ffffffffffffffffffffffffffffffffffffffff163373ffffffffffffffffffffffffffffffffffffffff1614610433576040517f08c379a000000000000000000000000000000000000000000000000000000000815260040161042a906110a4565b60405180910390fd5b61043d82826107bf565b5050565b61045261044c61061d565b82610841565b50565b7f000000000000000000000000000000000000000000000000000000000000000081565b60008060008373ffffffffffffffffffffffffffffffffffffffff1673ffffffffffffffffffffffffffffffffffffffff168152602001908152602001600020549050919050565b6104d3826104cd61061d565b83610637565b6104dd8282610841565b5050565b6060600480546104f090611027565b80601f016020809104026020016040519081016040528092919081815260200182805461051c90611027565b80156105695780601f1061053e57610100808354040283529160200191610569565b820191906000526020600020905b81548152906001019060200180831161054c57829003601f168201915b5050505050905090565b60008061057e61061d565b905061058b8185856106cb565b600191505092915050565b6000600160008473ffffffffffffffffffffffffffffffffffffffff1673ffffffffffffffffffffffffffffffffffffffff16815260200190815260200160002060008373ffffffffffffffffffffffffffffffffffffffff1673ffffffffffffffffffffffffffffffffffffffff16815260200190815260200160002054905092915050565b600033905090565b61063283838360016108c3565b505050565b60006106438484610596565b90507fffffffffffffffffffffffffffffffffffffffffffffffffffffffffffffffff81146106c557818110156106b5578281836040517ffb8f41b20000000000000000000000000000000000000000000000000000000081526004016106ac939291906110c4565b60405180910390fd5b6106c4848484840360006108c3565b5b50505050565b600073ffffffffffffffffffffffffffffffffffffffff168373ffffffffffffffffffffffffffffffffffffffff160361073d5760006040517f96c6fd1e0000000000000000000000000000000000000000000000000000000081526004016107349190610f70565b60405180910390fd5b600073ffffffffffffffffffffffffffffffffffffffff168273ffffffffffffffffffffffffffffffffffffffff16036107af5760006040517fec442f050000000000000000000000000000000000000000000000000000000081526004016107a69190610f70565b60405180910390fd5b6107ba838383610a9a565b505050565b600073ffffffffffffffffffffffffffffffffffffffff168273ffffffffffffffffffffffffffffffffffffffff16036108315760006040517fec442f050000000000000000000000000000000000000000000000000000000081526004016108289190610f70565b60405180910390fd5b61083d60008383610a9a565b5050565b600073ffffffffffffffffffffffffffffffffffffffff168273ffffffffffffffffffffffffffffffffffffffff16036108b35760006040517f96c6fd1e0000000000000000000000000000000000000000000000000000000081526004016108aa9190610f70565b60405180910390fd5b6108bf82600083610a9a565b5050565b600073ffffffffffffffffffffffffffffffffffffffff168473ffffffffffffffffffffffffffffffffffffffff16036109355760006040517fe602df0500000000000000000000000000000000000000000000000000000000815260040161092c9190610f70565b60405180910390fd5b600073ffffffffffffffffffffffffffffffffffffffff168373ffffffffffffffffffffffffffffffffffffffff16036109a75760006040517f94280d6200000000000000000000000000000000000000000000000000000000815260040161099e9190610f70565b60405180910390fd5b81600160008673ffffffffffffffffffffffffffffffffffffffff1673ffffffffffffffffffffffffffffffffffffffff16815260200190815260200160002060008573ffffffffffffffffffffffffffffffffffffffff1673ffffffffffffffffffffffffffffffffffffffff168152602001908152602001600020819055508015610a94578273ffffffffffffffffffffffffffffffffffffffff168473ffffffffffffffffffffffffffffffffffffffff167f8c5be1e5ebec7d5bd14f71427d1e84f3dd0314c0f7b2291e5b200ac8c7c3b92584604051610a8b9190610e8f565b60405180910390a35b50505050565b600073ffffffffffffffffffffffffffffffffffffffff168373ffffffffffffffffffffffffffffffffffffffff1603610aec578060026000828254610ae0919061112a565b92505081905550610bbf565b60008060008573ffffffffffffffffffffffffffffffffffffffff1673ffffffffffffffffffffffffffffffffffffffff16815260200190815260200160002054905081811015610b78578381836040517fe450d38c000000000000000000000000000000000000000000000000000000008152600401610b6f939291906110c4565b60405180910390fd5b8181036000808673ffffffffffffffffffffffffffffffffffffffff1673ffffffffffffffffffffffffffffffffffffffff16815260200190815260200160002081905550505b600073ffffffffffffffffffffffffffffffffffffffff168273ffffffffffffffffffffffffffffffffffffffff1603610c085780600260008282540392505081905550610c55565b806000808473ffffffffffffffffffffffffffffffffffffffff1673ffffffffffffffffffffffffffffffffffffffff168152602001908152602001600020600082825401925050819055505b8173ffffffffffffffffffffffffffffffffffffffff168373ffffffffffffffffffffffffffffffffffffffff167fddf252ad1be2c89b69c2b068fc378daa952ba7f163c4a11628f55a4df523b3ef83604051610cb29190610e8f565b60405180910390a3505050565b600081519050919050565b600082825260208201905092915050565b60005b83811015610cf9578082015181840152602081019050610cde565b60008484015250505050565b6000601f19601f8301169050919050565b6000610d2182610cbf565b610d2b8185610cca565b9350610d3b818560208601610cdb565b610d4481610d05565b840191505092915050565b60006020820190508181036000830152610d698184610d16565b905092915050565b600080fd5b600073ffffffffffffffffffffffffffffffffffffffff82169050919050565b6000610da182610d76565b9050919050565b610db181610d96565b8114610dbc57600080fd5b50565b600081359050610dce81610da8565b92915050565b6000819050919050565b610de781610dd4565b8114610df257600080fd5b50565b600081359050610e0481610dde565b92915050565b60008060408385031215610e2157610e20610d71565b5b6000610e2f85828601610dbf565b9250506020610e4085828601610df5565b9150509250929050565b60008115159050919050565b610e5f81610e4a565b82525050565b6000602082019050610e7a6000830184610e56565b92915050565b610e8981610dd4565b82525050565b6000602082019050610ea46000830184610e80565b92915050565b600080600060608486031215610ec357610ec2610d71565b5b6000610ed186828701610dbf565b9350506020610ee286828701610dbf565b9250506040610ef386828701610df5565b9150509250925092565b600060ff82169050919050565b610f1381610efd565b82525050565b6000602082019050610f2e6000830184610f0a565b92915050565b600060208284031215610f4a57610f49610d71565b5b6000610f5884828501610df5565b91505092915050565b610f6a81610d96565b82525050565b6000602082019050610f856000830184610f61565b92915050565b600060208284031215610fa157610fa0610d71565b5b6000610faf84828501610dbf565b91505092915050565b60008060408385031215610fcf57610fce610d71565b5b6000610fdd85828601610dbf565b9250506020610fee85828601610dbf565b9150509250929050565b7f4e487b7100000000000000000000000000000000000000000000000000000000600052602260045260246000fd5b6000600282049050600182168061103f57607f821691505b60208210810361105257611051610ff8565b5b50919050565b7f4e4c000000000000000000000000000000000000000000000000000000000000600082015250565b600061108e600283610cca565b915061109982611058565b602082019050919050565b600060208201905081810360008301526110bd81611081565b9050919050565b60006060820190506110d96000830186610f61565b6110e66020830185610e80565b6110f36040830184610e80565b949350505050565b7f4e487b7100000000000000000000000000000000000000000000000000000000600052601160045260246000fd5b600061113582610dd4565b915061114083610dd4565b9250828201905080821115611158576111576110fb565b5b9291505056fea2646970667358221220313437506eb98a6a99dcd2955e432a3c418c8e7163ab52d0b01a0ffa1f1cc1ce64736f6c634300081c0033",
  "linkReferences": {},
  "deployedLinkReferences": {}
}